:1044000055425C0135D0085A82454224314000446F
:104410003F4022000F930824924242245C012F83E4
:104420009F4F3A4C0024F8233F4020000F9307246D
:10443000924242245C011F83CF432224F923B0120D
:10444000724AB0120C45B01224453F4000000F9351
:104450000524B0120000B0122445FB3FB0122445E1
:10446000FD3F32D0F000FD3F3040924BC293182404
:104470000B207F42B01246485F43C29318240124A8
:104480004F43C24F182430410C430D433E408C0A29
:104490007F42B012B447F03F5D422224021232C282
:1044A0000343C24DC004F2403900C8041F42CA048D
:1044B00032418F104E4F5E034F4E5F0A4E5F4F4D9D
:1044C0004F8E7F9007000E2C5E437F402B00B01272
:1044D0009A465F4222245F53C24F22247F901D00E0
:1044E000072C30414E437F402B00B0129A46F13FDB
:1044F0004E437F402B00B0129A463F400C24B0122E
:104500007E453F400024B0123E4530415E437F402F
:104510002B00B0122E463F400C24B0123E45B01284
:10452000264530413041C2432624B240D007920391
:10453000B240D4028003B2D01000820330411E4248
:1045400024240E930220183C0E4D1D4E0A000D939C
:10455000FB238E4F0A008F93000007208F930200E9
:1045600004209F4300008F4302008F4306008F43C7
:1045700008008F430A003041824F2424EC3F1C4244
:1045800024240C9F0C240C9314240D4C013C0D4E40
:104590001E4D0A000F9E05240E93F92330410E4C48
:1045A0000D4C0E9305240E9C05249D4E0A000A0016
:1045B00030413041924E0A00242430412B151B42D9
:1045C00024240B9317202C3C5A4226244A930E2075
:1045D000D2432624094E0A4F098C0A7D8B490600D6
:1045E0008B4A08009B120400C24326241B4B0A007E
:1045F0000B9316241E4B06001F4B08001E530F631F
:104600008B4E06008B4F08002C4B1D4B02000F9D5C
:10461000ED2BDA230E9CD82F1B4B0A000B93EA23B9
:10462000291730413F15B012BC453C1700131B152C
:104630004F4F5B4F944B5F4FC34B4F9318244F4FDB
:104640005F021C4FF24B6D4C4A4B7AE34DFACC4D56
:1046500000001D4F164C1C4F044C1F4F284C4E930E
:1046600008246E930C246E921124CDDB00001A17DF
:104670003041CDFA0000CCFA00001A173041CDFAD3
:104680000000CFDB0000CCDB0000F13FCDFA0000E2
:10469000CFFA0000CCDB0000EA3F1B154F4F5C4F08
:1046A000944B5F4FC34B4F9310244F4F5F021B4FF0
:1046B000F24B6D4B4A4C7AE34DFACB4D00001F4F45
:1046C000284C4E930424CFDC00001A173041CFFA57
:1046D00000001A1730415B15494F074C064D0E93E9
:1046E0006124484F0A4E0B430A5A0B6B0C4A0D4B80
:1046F0003E4080843F401E00B012464B0A485A029A
:104700008A4E1E24079337243A502E24021232C2B6
:1047100003438247D4048246D604B2404042E004B8
:10472000B2400F00E2041842CA041F42CC043241D6
:10473000021232C20343824EC004B240E803C804EE
:104740001C42CA041D42CC0432410E48B0120E4B2A
:104750008A4E000049931520B2B010004203062093
:104760001F4250031F521E24824F5203B2401000BA
:104770004203561730410693C723BA432E24499368
:10478000EB275993F623B2B01000440306201F42D2
:1047900050031F522024824F5403B24010004403A0
:1047A000561730414F4F5F028F431E248F432E24F4
:1047B000561730413B1521820A4E4B4F5E4BC34B7F
:1047C0004E930C2459421924499F0B2458421A2411
:1047D000489F0C2479930C24789332242152381763
:1047E00030414F430E4AB012D646F83F5F43FA3F7E
:1047F00048430943C94F1924D94B944B1B245902F0
:104800004E4E5E02994E284C2824C2932C24092037
:104810008243420382434403B240E4024003D24352
:104820002C245E43814C0000814D0200B0122E46C4
:104830002C411D4102000E4A4F48B012D646CE3FD1
:1048400058431943D73F0B127F9309243E40192444
:104850000D436F9E06241D531E532D93FA233B4197
:104860003041FE4300005D930A24824342030C4D15
:104870005C021B4C2824DBCD1B240000EC3F824350
:104880004403F53F1F151E422824DEE21B240000CE
:104890001F422E240F930D241F9303383F53824F42
:1048A0002E241F4252031F521E24824F52031E17F2
:1048B0000013824342031E422824DEC21B24000050
:1048C0001F4252031F521E24824F52031E17001311
:1048D0001F151F426E032F9302241E1700131E4242
:1048E0002A24DEE21C2400001F4230240F930D24F2
:1048F0001F9303383F53824F30241F4254031F52EB
:104900002024824F54031E170013824344031E4287
:104910002A24DEC21C240000F03FF2D030004A02FC
:10492000F2D00C004402B2F0FEFF6C01B2D00C00D9
:104930006C01B2F0F4FF6E01B2F0FDFF02013E40E7
:1049400029003F4080B01F83FE231E83FC230343C6
:104950003D400300A2B302011124B2F0F4FF6E0146
:10496000B2F0FDFF02013E4029003F4080B01F83AE
:10497000FE231E83FC2303433D53EC23B2F03FFF91
:104980006C013041F240A5FF2101B2F0F8FF260191
:10499000C2432001B2F0F8FF2C011F4226013FF074
:1049A000F8FF1FD3824F260192B32C01FD27A2B33B
:1049B0002C01FD275F4220017FF0FCFF5FD3C24F37
:1049C0002001A2B22C01FD27B2F0F8FF2C011F42FA
:1049D00026013FF0F8FF2FD3824F260192B32C011E
:1049E000FD27A2B32C01FD275F4220017FF0FCFFD1
:1049F0006FD3C24F2001A2B22C01FD27B2F0F8FF05
:104A00002C011F4226013FF0F8FF3FD00300824FE8
:104A1000260192B32C01FD27A2B32C01FD27F2D071
:104A200003002001A2B22C01FD27B2F0FFBB24013C
:104A3000B2F0FFBB2601C243210182436001B240B4
:104A400060006201B240E7116401B24020006601DB
:104A5000B24044006801B2F0F8FF6E01F240A5FFD9
:104A60002101B2F0FEFF3001C2432101B0121A4908
:104A70003041B240805A5C01B0128449B2401D5AA4
:104A80005C0192D30001B24028960009B2F0FFE722
:104A90000809B2400096000932D230414F151E423B
:104AA00036241F4238241B4234245D4232244D9365
:104AB0002B241C423E240D430E5C0F6D5D423224BC
:104AC0004D931F241D4240240D5B3D90E8030428B4
:104AD0003D5018FC1E530F63824D3424824E362401
:104AE000824F38241E423A241F423C241E530F6337
:104AF000824E3A24824F3C24B1C0D0000A004B17AA
:104B000000133D400002E03F0C430D43D53F2B1501
:104B1000794020000A4C0B4D0C430D430E5E0F6F85
:104B20000C6C0D6D0D9B062802200C9A03280C8A34
:104B30000D7B1ED31983F22329173041B0120E4B7F
:104B40000E4C0F4D30410B120B430F9306343B407C
:104B500003003EE33FE31E530F630D9305345BE315
:104B60003CE33DE31C530D63B0120E4B6BB30424C6
:104B70003CE33DE31C530D635BB304243EE33FE39E
:104B80001E530F633B413041B012464B0E4C0F4D4C
:044B9000304100139D
:104B94000000201008404004800402020840020182
:104BA4000010040100000001020408100140200468
:104BB4008001080408102010200202018020100047
:104BC40000060303010603020404080202030300AF
:104BD4000702020000000606060606070303080390
:104BE40004040101010102020201010404040000A1
:104BF4000A020B022A022B024A024B026A026B02CD
:104C04000000060207022602270246024702660245
:104C14006702000004020502240225024402450240
:104C2400640265020000020203022202230242021D
:064C34004302620263026C
:104C3A00E80300006C44000000000000F4010000DA
:104C4A00984400000000000001FFFFFFFF00FFFF83
:024C5A00FFFF5A
:10FF8000FFFFFFFFFFFFFFFFFFFFFFFFFFFFFFFF81
:10FF9000FFFFFFFFFFFFFFFFFFFFFFFFFFFFFFFF71
:10FFA000FFFFFFFFFFFFFFFFFFFFFFFFFFFFFFFF61
:10FFB000FFFFFFFFFFFFFFFFFFFFFFFFFFFFFFFF51
:10FFC00068446844684468446844684468446844D1
:10FFD00068446844684468446844684468446844C1
:10FFE0006844244668446844D04884486844684467
:10FFF00068449C4A684468446844684468440044CF
:0400000300004400B5
:00000001FF
